{
  "_format": "hh-sol-artifact-1",
  "contractName": "PressingGame",
  "sourceName": "contracts/PressingGame.sol",
  "abi": [
    {
      "anonymous": false,
      "inputs": [
        {
          "indexed": true,
          "internalType": "address",
          "name": "from",
          "type": "address"
        },
        {
          "indexed": false,
          "internalType": "uint256",
          "name": "amount",
          "type": "uint256"
        },
        {
          "indexed": false,
          "internalType": "uint256",
          "name": "blockNumber",
          "type": "uint256"
        }
      ],
      "name": "PressButton",
      "type": "event"
    },
    {
      "anonymous": false,
      "inputs": [
        {
          "indexed": true,
          "internalType": "address",
          "name": "winner",
          "type": "address"
        },
        {
          "indexed": false,
          "internalType": "uint256",
          "name": "amount",
          "type": "uint256"
        }
      ],
      "name": "Withdraw",
      "type": "event"
    },
    {
      "inputs": [],
      "name": "checkFinished",
      "outputs": [
        {
          "internalType": "bool",
          "name": "success",
          "type": "bool"
        }
      ],
      "stateMutability": "view",
      "type": "function"
    },
    {
      "inputs": [],
      "name": "checkGameBlockNumber",
      "outputs": [],
      "stateMutability": "view",
      "type": "function"
    },
    {
      "inputs": [],
      "name": "checkWinner",
      "outputs": [
        {
          "internalType": "bool",
          "name": "success",
          "type": "bool"
        }
      ],
      "stateMutability": "view",
      "type": "function"
    },
    {
      "inputs": [],
      "name": "pressButton",
      "outputs": [
        {
          "internalType": "uint256",
          "name": "gameBlock",
          "type": "uint256"
        }
      ],
      "stateMutability": "payable",
      "type": "function"
    },
    {
      "inputs": [],
      "name": "withdraw",
      "outputs": [
        {
          "internalType": "bool",
          "name": "success",
          "type": "bool"
        }
      ],
      "stateMutability": "nonpayable",
      "type": "function"
    }
  ],
  "bytecode": "0x608060405234801561001057600080fd5b506109e3806100206000396000f3fe60806040526004361061004a5760003560e01c80633b6c51431461004f5780633ccfd60b1461007a5780636556b716146100a5578063ad38867e146100bc578063c8b5da66146100e7575b600080fd5b34801561005b57600080fd5b50610064610105565b60405161007191906107d7565b60405180910390f35b34801561008657600080fd5b5061008f61013f565b60405161009c91906107d7565b60405180910390f35b3480156100b157600080fd5b506100ba6103d3565b005b3480156100c857600080fd5b506100d1610435565b6040516100de91906107d7565b60405180910390f35b6100ef6104c8565b6040516100fc91906108b2565b60405180910390f35b600080600260006002015461011a9190610912565b90506000915060008060010154111561013b574381101561013a57600191505b5b5090565b60008060026000600201546101549190610912565b9050438110610198576040517f08c379a000000000000000000000000000000000000000000000000000000000815260040161018f90610812565b60405180910390fd5b60008060010154905060008060000160009054906101000a900473ffffffffffffffffffffffffffffffffffffffff1690506000821161020d576040517f08c379a0000000000000000000000000000000000000000000000000000000008152600401610204906107f2565b60405180910390fd5b3373ffffffffffffffffffffffffffffffffffffffff168173ffffffffffffffffffffffffffffffffffffffff161461027b576040517f08c379a000000000000000000000000000000000000000000000000000000000815260040161027290610872565b60405180910390fd5b3373ffffffffffffffffffffffffffffffffffffffff168260405161029f906107c2565b60006040518083038185875af1925050503d80600081146102dc576040519150601f19603f3d011682016040523d82523d6000602084013e6102e1565b606091505b50508094505083610327576040517f08c379a000000000000000000000000000000000000000000000000000000000815260040161031e90610832565b60405180910390fd5b6000806001018190555060008060000160006101000a81548173ffffffffffffffffffffffffffffffffffffffff021916908373ffffffffffffffffffffffffffffffffffffffff160217905550600080600201819055503373ffffffffffffffffffffffffffffffffffffffff167f884edad9ce6fa2440d8a54cc123490eb96d2768479d49ff9c7366125a9424364836040516103c591906108b2565b60405180910390a250505090565b60006103ee60046000600201546105f490919063ffffffff16565b9050438111610432576040517f08c379a000000000000000000000000000000000000000000000000000000000815260040161042990610892565b60405180910390fd5b50565b600080600260006002015461044a9190610912565b9050600091506000806001015411156104c457438110156104c3573373ffffffffffffffffffffffffffffffffffffffff166000800160009054906101000a900473ffffffffffffffffffffffffffffffffffffffff1673ffffffffffffffffffffffffffffffffffffffff1614156104c257600191505b5b5b5090565b600066038d7ea4c680003414610513576040517f08c379a000000000000000000000000000000000000000000000000000000000815260040161050a90610852565b60405180910390fd5b600080600101541115610529576105286103d3565b5b336000800160006101000a81548173ffffffffffffffffffffffffffffffffffffffff021916908373ffffffffffffffffffffffffffffffffffffffff160217905550610584346000600101546105f490919063ffffffff16565b600060010181905550436000600201819055503373ffffffffffffffffffffffffffffffffffffffff167f7fd276fe87a271939434dc6f6d406f9a2ebf4fa28e38e290665de9a3efb8d6886000600101546000600201546040516105e99291906108cd565b60405180910390a290565b600081836106029190610912565b905092915050565b61061381610968565b82525050565b6000610626601583610901565b91507f4e6f20616d6f756e7420746f20776974686472617700000000000000000000006000830152602082019050919050565b6000610666601483610901565b91507f47616d65206973206e6f742066696e69736865640000000000000000000000006000830152602082019050919050565b60006106a6600f83610901565b91507f5061796d656e742070726f626c656d00000000000000000000000000000000006000830152602082019050919050565b60006106e6600d83610901565b91507f57726f6e6720616d6f756e742e000000000000000000000000000000000000006000830152602082019050919050565b6000610726601383610901565b91507f596f7572206e6f74207468652077696e6e6572000000000000000000000000006000830152602082019050919050565b6000610766600583610901565b91507f5365696c610000000000000000000000000000000000000000000000000000006000830152602082019050919050565b60006107a66000836108f6565b9150600082019050919050565b6107bc81610974565b82525050565b60006107cd82610799565b9150819050919050565b60006020820190506107ec600083018461060a565b92915050565b6000602082019050818103600083015261080b81610619565b9050919050565b6000602082019050818103600083015261082b81610659565b9050919050565b6000602082019050818103600083015261084b81610699565b9050919050565b6000602082019050818103600083015261086b816106d9565b9050919050565b6000602082019050818103600083015261088b81610719565b9050919050565b600060208201905081810360008301526108ab81610759565b9050919050565b60006020820190506108c760008301846107b3565b92915050565b60006040820190506108e260008301856107b3565b6108ef60208301846107b3565b9392505050565b600081905092915050565b600082825260208201905092915050565b600061091d82610974565b915061092883610974565b9250827fffffffffffffffffffffffffffffffffffffffffffffffffffffffffffffffff0382111561095d5761095c61097e565b5b828201905092915050565b60008115159050919050565b6000819050919050565b7f4e487b7100000000000000000000000000000000000000000000000000000000600052601160045260246000fdfea2646970667358221220f15a4fb832679dd5da8faae8179c152a8c423c551b8577f2a353e56efeb4e7d964736f6c63430008000033",
  "linkReferences": {},
  "deployedLinkReferences": {}
}