{
  "_format": "hh-sol-artifact-1",
  "contractName": "PressingGame",
  "sourceName": "contracts/PressingGame.sol",
  "abi": [
    {
      "anonymous": false,
      "inputs": [
        {
          "indexed": true,
          "internalType": "address",
          "name": "from",
          "type": "address"
        },
        {
          "indexed": false,
          "internalType": "uint256",
          "name": "amount",
          "type": "uint256"
        },
        {
          "indexed": false,
          "internalType": "uint256",
          "name": "blockNumber",
          "type": "uint256"
        }
      ],
      "name": "PressButton",
      "type": "event"
    },
    {
      "anonymous": false,
      "inputs": [
        {
          "indexed": true,
          "internalType": "address",
          "name": "winner",
          "type": "address"
        },
        {
          "indexed": false,
          "internalType": "uint256",
          "name": "amount",
          "type": "uint256"
        }
      ],
      "name": "Withdraw",
      "type": "event"
    },
    {
      "inputs": [],
      "name": "checkFinished",
      "outputs": [
        {
          "internalType": "bool",
          "name": "success",
          "type": "bool"
        }
      ],
      "stateMutability": "view",
      "type": "function"
    },
    {
      "inputs": [],
      "name": "checkGameFinished",
      "outputs": [
        {
          "internalType": "bool",
          "name": "success",
          "type": "bool"
        }
      ],
      "stateMutability": "view",
      "type": "function"
    },
    {
      "inputs": [],
      "name": "checkWinner",
      "outputs": [
        {
          "internalType": "bool",
          "name": "success",
          "type": "bool"
        }
      ],
      "stateMutability": "view",
      "type": "function"
    },
    {
      "inputs": [],
      "name": "pressButton",
      "outputs": [],
      "stateMutability": "payable",
      "type": "function"
    },
    {
      "inputs": [],
      "name": "validateGameFinished",
      "outputs": [],
      "stateMutability": "view",
      "type": "function"
    },
    {
      "inputs": [],
      "name": "withdraw",
      "outputs": [
        {
          "internalType": "bool",
          "name": "success",
          "type": "bool"
        }
      ],
      "stateMutability": "nonpayable",
      "type": "function"
    }
  ],
  "bytecode": "0x608060405234801561001057600080fd5b506001600081905550610aac806100286000396000f3fe6080604052600436106100555760003560e01c80633b6c51431461005a5780633ccfd60b14610085578063a491a686146100b0578063ad38867e146100db578063c8b5da6614610106578063fde7130414610110575b600080fd5b34801561006657600080fd5b5061006f610127565b60405161007c9190610880565b60405180910390f35b34801561009157600080fd5b5061009a61014b565b6040516100a79190610880565b60405180910390f35b3480156100bc57600080fd5b506100c5610427565b6040516100d29190610880565b60405180910390f35b3480156100e757600080fd5b506100f0610455565b6040516100fd9190610880565b60405180910390f35b61010e6104d3565b005b34801561011c57600080fd5b506101256105fa565b005b600080600180015411156101485761013d610427565b1561014757600190505b5b90565b600060026000541415610193576040517f08c379a000000000000000000000000000000000000000000000000000000000815260040161018a9061095b565b60405180910390fd5b60026000819055506101a3610427565b6101e2576040517f08c379a00000000000000000000000000000000000000000000000000000000081526004016101d99061093b565b60405180910390fd5b6000600180015490506000600160000160009054906101000a900473ffffffffffffffffffffffffffffffffffffffff16905060008211610258576040517f08c379a000000000000000000000000000000000000000000000000000000000815260040161024f9061089b565b60405180910390fd5b3373ffffffffffffffffffffffffffffffffffffffff168173ffffffffffffffffffffffffffffffffffffffff16146102c6576040517f08c379a00000000000000000000000000000000000000000000000000000000081526004016102bd9061091b565b60405180910390fd5b3373ffffffffffffffffffffffffffffffffffffffff16826040516102ea9061086b565b60006040518083038185875af1925050503d8060008114610327576040519150601f19603f3d011682016040523d82523d6000602084013e61032c565b606091505b50508093505082610372576040517f08c379a0000000000000000000000000000000000000000000000000000000008152600401610369906108bb565b60405180910390fd5b600060018001819055506000600160000160006101000a81548173ffffffffffffffffffffffffffffffffffffffff021916908373ffffffffffffffffffffffffffffffffffffffff16021790555060006001600201819055503373ffffffffffffffffffffffffffffffffffffffff167f884edad9ce6fa2440d8a54cc123490eb96d2768479d49ff9c7366125a942436483604051610412919061097b565b60405180910390a25050600160008190555090565b600080610443600360016002015461065d90919063ffffffff16565b905043811161045157600191505b5090565b600080600180015411156104d05761046b610427565b156104cf573373ffffffffffffffffffffffffffffffffffffffff16600160000160009054906101000a900473ffffffffffffffffffffffffffffffffffffffff1673ffffffffffffffffffffffffffffffffffffffff1614156104ce57600190505b5b5b90565b66038d7ea4c68000341461051c576040517f08c379a0000000000000000000000000000000000000000000000000000000008152600401610513906108fb565b60405180910390fd5b600060018001541115610532576105316105fa565b5b33600160000160006101000a81548173ffffffffffffffffffffffffffffffffffffffff021916908373ffffffffffffffffffffffffffffffffffffffff16021790555061058d34600180015461065d90919063ffffffff16565b6001800181905550436001600201819055503373ffffffffffffffffffffffffffffffffffffffff167f7fd276fe87a271939434dc6f6d406f9a2ebf4fa28e38e290665de9a3efb8d68860018001546001600201546040516105f0929190610996565b60405180910390a2565b6000610615600360016002015461065d90919063ffffffff16565b90504381101561065a576040517f08c379a0000000000000000000000000000000000000000000000000000000008152600401610651906108db565b60405180910390fd5b50565b6000818361066b91906109db565b905092915050565b61067c81610a31565b82525050565b600061068f6015836109ca565b91507f4e6f20616d6f756e7420746f20776974686472617700000000000000000000006000830152602082019050919050565b60006106cf600f836109ca565b91507f5061796d656e742070726f626c656d00000000000000000000000000000000006000830152602082019050919050565b600061070f6012836109ca565b91507f47616d65206861732066696e69736865642e00000000000000000000000000006000830152602082019050919050565b600061074f600d836109ca565b91507f57726f6e6720616d6f756e742e000000000000000000000000000000000000006000830152602082019050919050565b600061078f6013836109ca565b91507f596f7572206e6f74207468652077696e6e6572000000000000000000000000006000830152602082019050919050565b60006107cf6011836109ca565b91507f47616d65206e6f742066696e69736865640000000000000000000000000000006000830152602082019050919050565b600061080f6000836109bf565b9150600082019050919050565b6000610829601f836109ca565b91507f5265656e7472616e637947756172643a207265656e7472616e742063616c6c006000830152602082019050919050565b61086581610a3d565b82525050565b600061087682610802565b9150819050919050565b60006020820190506108956000830184610673565b92915050565b600060208201905081810360008301526108b481610682565b9050919050565b600060208201905081810360008301526108d4816106c2565b9050919050565b600060208201905081810360008301526108f481610702565b9050919050565b6000602082019050818103600083015261091481610742565b9050919050565b6000602082019050818103600083015261093481610782565b9050919050565b60006020820190508181036000830152610954816107c2565b9050919050565b600060208201905081810360008301526109748161081c565b9050919050565b6000602082019050610990600083018461085c565b92915050565b60006040820190506109ab600083018561085c565b6109b8602083018461085c565b9392505050565b600081905092915050565b600082825260208201905092915050565b60006109e682610a3d565b91506109f183610a3d565b9250827fffffffffffffffffffffffffffffffffffffffffffffffffffffffffffffffff03821115610a2657610a25610a47565b5b828201905092915050565b60008115159050919050565b6000819050919050565b7f4e487b7100000000000000000000000000000000000000000000000000000000600052601160045260246000fdfea26469706673582212205042114c0695dbb23e0d68dfd4f1f1e21fed0ad246e4eb6a97f07b93962e16bc64736f6c63430008000033",
  "linkReferences": {},
  "deployedLinkReferences": {}
}