{
  "contracts/PressingGame.sol": {
    "PressingGame": {
      "abi": [
        {
          "anonymous": false,
          "inputs": [
            {
              "indexed": true,
              "internalType": "address",
              "name": "from",
              "type": "address"
            },
            {
              "indexed": false,
              "internalType": "uint256",
              "name": "amount",
              "type": "uint256"
            },
            {
              "indexed": false,
              "internalType": "uint256",
              "name": "blockNumber",
              "type": "uint256"
            }
          ],
          "name": "PressButton",
          "type": "event"
        },
        {
          "anonymous": false,
          "inputs": [
            {
              "indexed": true,
              "internalType": "address",
              "name": "winner",
              "type": "address"
            },
            {
              "indexed": false,
              "internalType": "uint256",
              "name": "amount",
              "type": "uint256"
            }
          ],
          "name": "Withdraw",
          "type": "event"
        },
        {
          "inputs": [],
          "name": "checkFinished",
          "outputs": [
            {
              "internalType": "bool",
              "name": "success",
              "type": "bool"
            }
          ],
          "stateMutability": "view",
          "type": "function"
        },
        {
          "inputs": [],
          "name": "checkGameBlockNumber",
          "outputs": [],
          "stateMutability": "view",
          "type": "function"
        },
        {
          "inputs": [],
          "name": "checkWinner",
          "outputs": [
            {
              "internalType": "bool",
              "name": "success",
              "type": "bool"
            }
          ],
          "stateMutability": "view",
          "type": "function"
        },
        {
          "inputs": [],
          "name": "pressButton",
          "outputs": [
            {
              "internalType": "uint256",
              "name": "gameBlock",
              "type": "uint256"
            }
          ],
          "stateMutability": "payable",
          "type": "function"
        },
        {
          "inputs": [],
          "name": "withdraw",
          "outputs": [
            {
              "internalType": "bool",
              "name": "success",
              "type": "bool"
            }
          ],
          "stateMutability": "nonpayable",
          "type": "function"
        }
      ],
      "evm": {
        "bytecode": {
          "linkReferences": {},
          "object": "608060405234801561001057600080fd5b506109e3806100206000396000f3fe60806040526004361061004a5760003560e01c80633b6c51431461004f5780633ccfd60b1461007a5780636556b716146100a5578063ad38867e146100bc578063c8b5da66146100e7575b600080fd5b34801561005b57600080fd5b50610064610105565b60405161007191906107d7565b60405180910390f35b34801561008657600080fd5b5061008f61013f565b60405161009c91906107d7565b60405180910390f35b3480156100b157600080fd5b506100ba6103d3565b005b3480156100c857600080fd5b506100d1610435565b6040516100de91906107d7565b60405180910390f35b6100ef6104c8565b6040516100fc91906108b2565b60405180910390f35b600080600260006002015461011a9190610912565b90506000915060008060010154111561013b574381101561013a57600191505b5b5090565b60008060026000600201546101549190610912565b9050438110610198576040517f08c379a000000000000000000000000000000000000000000000000000000000815260040161018f90610812565b60405180910390fd5b60008060010154905060008060000160009054906101000a900473ffffffffffffffffffffffffffffffffffffffff1690506000821161020d576040517f08c379a0000000000000000000000000000000000000000000000000000000008152600401610204906107f2565b60405180910390fd5b3373ffffffffffffffffffffffffffffffffffffffff168173ffffffffffffffffffffffffffffffffffffffff161461027b576040517f08c379a000000000000000000000000000000000000000000000000000000000815260040161027290610872565b60405180910390fd5b3373ffffffffffffffffffffffffffffffffffffffff168260405161029f906107c2565b60006040518083038185875af1925050503d80600081146102dc576040519150601f19603f3d011682016040523d82523d6000602084013e6102e1565b606091505b50508094505083610327576040517f08c379a000000000000000000000000000000000000000000000000000000000815260040161031e90610832565b60405180910390fd5b6000806001018190555060008060000160006101000a81548173ffffffffffffffffffffffffffffffffffffffff021916908373ffffffffffffffffffffffffffffffffffffffff160217905550600080600201819055503373ffffffffffffffffffffffffffffffffffffffff167f884edad9ce6fa2440d8a54cc123490eb96d2768479d49ff9c7366125a9424364836040516103c591906108b2565b60405180910390a250505090565b60006103ee60046000600201546105f490919063ffffffff16565b9050438111610432576040517f08c379a000000000000000000000000000000000000000000000000000000000815260040161042990610892565b60405180910390fd5b50565b600080600260006002015461044a9190610912565b9050600091506000806001015411156104c457438110156104c3573373ffffffffffffffffffffffffffffffffffffffff166000800160009054906101000a900473ffffffffffffffffffffffffffffffffffffffff1673ffffffffffffffffffffffffffffffffffffffff1614156104c257600191505b5b5b5090565b600066038d7ea4c680003414610513576040517f08c379a000000000000000000000000000000000000000000000000000000000815260040161050a90610852565b60405180910390fd5b600080600101541115610529576105286103d3565b5b336000800160006101000a81548173ffffffffffffffffffffffffffffffffffffffff021916908373ffffffffffffffffffffffffffffffffffffffff160217905550610584346000600101546105f490919063ffffffff16565b600060010181905550436000600201819055503373ffffffffffffffffffffffffffffffffffffffff167f7fd276fe87a271939434dc6f6d406f9a2ebf4fa28e38e290665de9a3efb8d6886000600101546000600201546040516105e99291906108cd565b60405180910390a290565b600081836106029190610912565b905092915050565b61061381610968565b82525050565b6000610626601583610901565b91507f4e6f20616d6f756e7420746f20776974686472617700000000000000000000006000830152602082019050919050565b6000610666601483610901565b91507f47616d65206973206e6f742066696e69736865640000000000000000000000006000830152602082019050919050565b60006106a6600f83610901565b91507f5061796d656e742070726f626c656d00000000000000000000000000000000006000830152602082019050919050565b60006106e6600d83610901565b91507f57726f6e6720616d6f756e742e000000000000000000000000000000000000006000830152602082019050919050565b6000610726601383610901565b91507f596f7572206e6f74207468652077696e6e6572000000000000000000000000006000830152602082019050919050565b6000610766600583610901565b91507f5365696c610000000000000000000000000000000000000000000000000000006000830152602082019050919050565b60006107a66000836108f6565b9150600082019050919050565b6107bc81610974565b82525050565b60006107cd82610799565b9150819050919050565b60006020820190506107ec600083018461060a565b92915050565b6000602082019050818103600083015261080b81610619565b9050919050565b6000602082019050818103600083015261082b81610659565b9050919050565b6000602082019050818103600083015261084b81610699565b9050919050565b6000602082019050818103600083015261086b816106d9565b9050919050565b6000602082019050818103600083015261088b81610719565b9050919050565b600060208201905081810360008301526108ab81610759565b9050919050565b60006020820190506108c760008301846107b3565b92915050565b60006040820190506108e260008301856107b3565b6108ef60208301846107b3565b9392505050565b600081905092915050565b600082825260208201905092915050565b600061091d82610974565b915061092883610974565b9250827fffffffffffffffffffffffffffffffffffffffffffffffffffffffffffffffff0382111561095d5761095c61097e565b5b828201905092915050565b60008115159050919050565b6000819050919050565b7f4e487b7100000000000000000000000000000000000000000000000000000000600052601160045260246000fdfea2646970667358221220f15a4fb832679dd5da8faae8179c152a8c423c551b8577f2a353e56efeb4e7d964736f6c63430008000033",
          "opcodes": "PUSH1 0x80 PUSH1 0x40 MSTORE CALLVALUE DUP1 ISZERO PUSH2 0x10 JUMPI PUSH1 0x0 DUP1 REVERT JUMPDEST POP PUSH2 0x9E3 DUP1 PUSH2 0x20 PUSH1 0x0 CODECOPY PUSH1 0x0 RETURN INVALID PUSH1 0x80 PUSH1 0x40 MSTORE PUSH1 0x4 CALLDATASIZE LT PUSH2 0x4A JUMPI PUSH1 0x0 CALLDATALOAD PUSH1 0xE0 SHR DUP1 PUSH4 0x3B6C5143 EQ PUSH2 0x4F JUMPI DUP1 PUSH4 0x3CCFD60B EQ PUSH2 0x7A JUMPI DUP1 PUSH4 0x6556B716 EQ PUSH2 0xA5 JUMPI DUP1 PUSH4 0xAD38867E EQ PUSH2 0xBC JUMPI DUP1 PUSH4 0xC8B5DA66 EQ PUSH2 0xE7 JUMPI JUMPDEST PUSH1 0x0 DUP1 REVERT JUMPDEST CALLVALUE DUP1 ISZERO PUSH2 0x5B JUMPI PUSH1 0x0 DUP1 REVERT JUMPDEST POP PUSH2 0x64 PUSH2 0x105 JUMP JUMPDEST PUSH1 0x40 MLOAD PUSH2 0x71 SWAP2 SWAP1 PUSH2 0x7D7 JUMP JUMPDEST PUSH1 0x40 MLOAD DUP1 SWAP2 SUB SWAP1 RETURN JUMPDEST CALLVALUE DUP1 ISZERO PUSH2 0x86 JUMPI PUSH1 0x0 DUP1 REVERT JUMPDEST POP PUSH2 0x8F PUSH2 0x13F JUMP JUMPDEST PUSH1 0x40 MLOAD PUSH2 0x9C SWAP2 SWAP1 PUSH2 0x7D7 JUMP JUMPDEST PUSH1 0x40 MLOAD DUP1 SWAP2 SUB SWAP1 RETURN JUMPDEST CALLVALUE DUP1 ISZERO PUSH2 0xB1 JUMPI PUSH1 0x0 DUP1 REVERT JUMPDEST POP PUSH2 0xBA PUSH2 0x3D3 JUMP JUMPDEST STOP JUMPDEST CALLVALUE DUP1 ISZERO PUSH2 0xC8 JUMPI PUSH1 0x0 DUP1 REVERT JUMPDEST POP PUSH2 0xD1 PUSH2 0x435 JUMP JUMPDEST PUSH1 0x40 MLOAD PUSH2 0xDE SWAP2 SWAP1 PUSH2 0x7D7 JUMP JUMPDEST PUSH1 0x40 MLOAD DUP1 SWAP2 SUB SWAP1 RETURN JUMPDEST PUSH2 0xEF PUSH2 0x4C8 JUMP JUMPDEST PUSH1 0x40 MLOAD PUSH2 0xFC SWAP2 SWAP1 PUSH2 0x8B2 JUMP JUMPDEST PUSH1 0x40 MLOAD DUP1 SWAP2 SUB SWAP1 RETURN JUMPDEST PUSH1 0x0 DUP1 PUSH1 0x2 PUSH1 0x0 PUSH1 0x2 ADD SLOAD PUSH2 0x11A SWAP2 SWAP1 PUSH2 0x912 JUMP JUMPDEST SWAP1 POP PUSH1 0x0 SWAP2 POP PUSH1 0x0 DUP1 PUSH1 0x1 ADD SLOAD GT ISZERO PUSH2 0x13B JUMPI NUMBER DUP2 LT ISZERO PUSH2 0x13A JUMPI PUSH1 0x1 SWAP2 POP JUMPDEST JUMPDEST POP SWAP1 JUMP JUMPDEST PUSH1 0x0 DUP1 PUSH1 0x2 PUSH1 0x0 PUSH1 0x2 ADD SLOAD PUSH2 0x154 SWAP2 SWAP1 PUSH2 0x912 JUMP JUMPDEST SWAP1 POP NUMBER DUP2 LT PUSH2 0x198 JUMPI PUSH1 0x40 MLOAD PUSH32 0x8C379A000000000000000000000000000000000000000000000000000000000 DUP2 MSTORE PUSH1 0x4 ADD PUSH2 0x18F SWAP1 PUSH2 0x812 JUMP JUMPDEST PUSH1 0x40 MLOAD DUP1 SWAP2 SUB SWAP1 REVERT JUMPDEST PUSH1 0x0 DUP1 PUSH1 0x1 ADD SLOAD SWAP1 POP PUSH1 0x0 DUP1 PUSH1 0x0 ADD PUSH1 0x0 SWAP1 SLOAD SWAP1 PUSH2 0x100 EXP SWAP1 DIV PUSH20 0xFFFFFFFFFFFFFFFFFFFFFFFFFFFFFFFFFFFFFFFF AND SWAP1 POP PUSH1 0x0 DUP3 GT PUSH2 0x20D JUMPI PUSH1 0x40 MLOAD PUSH32 0x8C379A000000000000000000000000000000000000000000000000000000000 DUP2 MSTORE PUSH1 0x4 ADD PUSH2 0x204 SWAP1 PUSH2 0x7F2 JUMP JUMPDEST PUSH1 0x40 MLOAD DUP1 SWAP2 SUB SWAP1 REVERT JUMPDEST CALLER PUSH20 0xFFFFFFFFFFFFFFFFFFFFFFFFFFFFFFFFFFFFFFFF AND DUP2 PUSH20 0xFFFFFFFFFFFFFFFFFFFFFFFFFFFFFFFFFFFFFFFF AND EQ PUSH2 0x27B JUMPI PUSH1 0x40 MLOAD PUSH32 0x8C379A000000000000000000000000000000000000000000000000000000000 DUP2 MSTORE PUSH1 0x4 ADD PUSH2 0x272 SWAP1 PUSH2 0x872 JUMP JUMPDEST PUSH1 0x40 MLOAD DUP1 SWAP2 SUB SWAP1 REVERT JUMPDEST CALLER PUSH20 0xFFFFFFFFFFFFFFFFFFFFFFFFFFFFFFFFFFFFFFFF AND DUP3 PUSH1 0x40 MLOAD PUSH2 0x29F SWAP1 PUSH2 0x7C2 JUMP JUMPDEST PUSH1 0x0 PUSH1 0x40 MLOAD DUP1 DUP4 SUB DUP2 DUP6 DUP8 GAS CALL SWAP3 POP POP POP RETURNDATASIZE DUP1 PUSH1 0x0 DUP2 EQ PUSH2 0x2DC JUMPI PUSH1 0x40 MLOAD SWAP2 POP PUSH1 0x1F NOT PUSH1 0x3F RETURNDATASIZE ADD AND DUP3 ADD PUSH1 0x40 MSTORE RETURNDATASIZE DUP3 MSTORE RETURNDATASIZE PUSH1 0x0 PUSH1 0x20 DUP5 ADD RETURNDATACOPY PUSH2 0x2E1 JUMP JUMPDEST PUSH1 0x60 SWAP2 POP JUMPDEST POP POP DUP1 SWAP5 POP POP DUP4 PUSH2 0x327 JUMPI PUSH1 0x40 MLOAD PUSH32 0x8C379A000000000000000000000000000000000000000000000000000000000 DUP2 MSTORE PUSH1 0x4 ADD PUSH2 0x31E SWAP1 PUSH2 0x832 JUMP JUMPDEST PUSH1 0x40 MLOAD DUP1 SWAP2 SUB SWAP1 REVERT JUMPDEST PUSH1 0x0 DUP1 PUSH1 0x1 ADD DUP2 SWAP1 SSTORE POP PUSH1 0x0 DUP1 PUSH1 0x0 ADD PUSH1 0x0 PUSH2 0x100 EXP DUP2 SLOAD DUP2 PUSH20 0xFFFFFFFFFFFFFFFFFFFFFFFFFFFFFFFFFFFFFFFF MUL NOT AND SWAP1 DUP4 PUSH20 0xFFFFFFFFFFFFFFFFFFFFFFFFFFFFFFFFFFFFFFFF AND MUL OR SWAP1 SSTORE POP PUSH1 0x0 DUP1 PUSH1 0x2 ADD DUP2 SWAP1 SSTORE POP CALLER PUSH20 0xFFFFFFFFFFFFFFFFFFFFFFFFFFFFFFFFFFFFFFFF AND PUSH32 0x884EDAD9CE6FA2440D8A54CC123490EB96D2768479D49FF9C7366125A9424364 DUP4 PUSH1 0x40 MLOAD PUSH2 0x3C5 SWAP2 SWAP1 PUSH2 0x8B2 JUMP JUMPDEST PUSH1 0x40 MLOAD DUP1 SWAP2 SUB SWAP1 LOG2 POP POP POP SWAP1 JUMP JUMPDEST PUSH1 0x0 PUSH2 0x3EE PUSH1 0x4 PUSH1 0x0 PUSH1 0x2 ADD SLOAD PUSH2 0x5F4 SWAP1 SWAP2 SWAP1 PUSH4 0xFFFFFFFF AND JUMP JUMPDEST SWAP1 POP NUMBER DUP2 GT PUSH2 0x432 JUMPI PUSH1 0x40 MLOAD PUSH32 0x8C379A000000000000000000000000000000000000000000000000000000000 DUP2 MSTORE PUSH1 0x4 ADD PUSH2 0x429 SWAP1 PUSH2 0x892 JUMP JUMPDEST PUSH1 0x40 MLOAD DUP1 SWAP2 SUB SWAP1 REVERT JUMPDEST POP JUMP JUMPDEST PUSH1 0x0 DUP1 PUSH1 0x2 PUSH1 0x0 PUSH1 0x2 ADD SLOAD PUSH2 0x44A SWAP2 SWAP1 PUSH2 0x912 JUMP JUMPDEST SWAP1 POP PUSH1 0x0 SWAP2 POP PUSH1 0x0 DUP1 PUSH1 0x1 ADD SLOAD GT ISZERO PUSH2 0x4C4 JUMPI NUMBER DUP2 LT ISZERO PUSH2 0x4C3 JUMPI CALLER PUSH20 0xFFFFFFFFFFFFFFFFFFFFFFFFFFFFFFFFFFFFFFFF AND PUSH1 0x0 DUP1 ADD PUSH1 0x0 SWAP1 SLOAD SWAP1 PUSH2 0x100 EXP SWAP1 DIV PUSH20 0xFFFFFFFFFFFFFFFFFFFFFFFFFFFFFFFFFFFFFFFF AND PUSH20 0xFFFFFFFFFFFFFFFFFFFFFFFFFFFFFFFFFFFFFFFF AND EQ ISZERO PUSH2 0x4C2 JUMPI PUSH1 0x1 SWAP2 POP JUMPDEST JUMPDEST JUMPDEST POP SWAP1 JUMP JUMPDEST PUSH1 0x0 PUSH7 0x38D7EA4C68000 CALLVALUE EQ PUSH2 0x513 JUMPI PUSH1 0x40 MLOAD PUSH32 0x8C379A000000000000000000000000000000000000000000000000000000000 DUP2 MSTORE PUSH1 0x4 ADD PUSH2 0x50A SWAP1 PUSH2 0x852 JUMP JUMPDEST PUSH1 0x40 MLOAD DUP1 SWAP2 SUB SWAP1 REVERT JUMPDEST PUSH1 0x0 DUP1 PUSH1 0x1 ADD SLOAD GT ISZERO PUSH2 0x529 JUMPI PUSH2 0x528 PUSH2 0x3D3 JUMP JUMPDEST JUMPDEST CALLER PUSH1 0x0 DUP1 ADD PUSH1 0x0 PUSH2 0x100 EXP DUP2 SLOAD DUP2 PUSH20 0xFFFFFFFFFFFFFFFFFFFFFFFFFFFFFFFFFFFFFFFF MUL NOT AND SWAP1 DUP4 PUSH20 0xFFFFFFFFFFFFFFFFFFFFFFFFFFFFFFFFFFFFFFFF AND MUL OR SWAP1 SSTORE POP PUSH2 0x584 CALLVALUE PUSH1 0x0 PUSH1 0x1 ADD SLOAD PUSH2 0x5F4 SWAP1 SWAP2 SWAP1 PUSH4 0xFFFFFFFF AND JUMP JUMPDEST PUSH1 0x0 PUSH1 0x1 ADD DUP2 SWAP1 SSTORE POP NUMBER PUSH1 0x0 PUSH1 0x2 ADD DUP2 SWAP1 SSTORE POP CALLER PUSH20 0xFFFFFFFFFFFFFFFFFFFFFFFFFFFFFFFFFFFFFFFF AND PUSH32 0x7FD276FE87A271939434DC6F6D406F9A2EBF4FA28E38E290665DE9A3EFB8D688 PUSH1 0x0 PUSH1 0x1 ADD SLOAD PUSH1 0x0 PUSH1 0x2 ADD SLOAD PUSH1 0x40 MLOAD PUSH2 0x5E9 SWAP3 SWAP2 SWAP1 PUSH2 0x8CD JUMP JUMPDEST PUSH1 0x40 MLOAD DUP1 SWAP2 SUB SWAP1 LOG2 SWAP1 JUMP JUMPDEST PUSH1 0x0 DUP2 DUP4 PUSH2 0x602 SWAP2 SWAP1 PUSH2 0x912 JUMP JUMPDEST SWAP1 POP SWAP3 SWAP2 POP POP JUMP JUMPDEST PUSH2 0x613 DUP2 PUSH2 0x968 JUMP JUMPDEST DUP3 MSTORE POP POP JUMP JUMPDEST PUSH1 0x0 PUSH2 0x626 PUSH1 0x15 DUP4 PUSH2 0x901 JUMP JUMPDEST SWAP2 POP PUSH32 0x4E6F20616D6F756E7420746F2077697468647261770000000000000000000000 PUSH1 0x0 DUP4 ADD MSTORE PUSH1 0x20 DUP3 ADD SWAP1 POP SWAP2 SWAP1 POP JUMP JUMPDEST PUSH1 0x0 PUSH2 0x666 PUSH1 0x14 DUP4 PUSH2 0x901 JUMP JUMPDEST SWAP2 POP PUSH32 0x47616D65206973206E6F742066696E6973686564000000000000000000000000 PUSH1 0x0 DUP4 ADD MSTORE PUSH1 0x20 DUP3 ADD SWAP1 POP SWAP2 SWAP1 POP JUMP JUMPDEST PUSH1 0x0 PUSH2 0x6A6 PUSH1 0xF DUP4 PUSH2 0x901 JUMP JUMPDEST SWAP2 POP PUSH32 0x5061796D656E742070726F626C656D0000000000000000000000000000000000 PUSH1 0x0 DUP4 ADD MSTORE PUSH1 0x20 DUP3 ADD SWAP1 POP SWAP2 SWAP1 POP JUMP JUMPDEST PUSH1 0x0 PUSH2 0x6E6 PUSH1 0xD DUP4 PUSH2 0x901 JUMP JUMPDEST SWAP2 POP PUSH32 0x57726F6E6720616D6F756E742E00000000000000000000000000000000000000 PUSH1 0x0 DUP4 ADD MSTORE PUSH1 0x20 DUP3 ADD SWAP1 POP SWAP2 SWAP1 POP JUMP JUMPDEST PUSH1 0x0 PUSH2 0x726 PUSH1 0x13 DUP4 PUSH2 0x901 JUMP JUMPDEST SWAP2 POP PUSH32 0x596F7572206E6F74207468652077696E6E657200000000000000000000000000 PUSH1 0x0 DUP4 ADD MSTORE PUSH1 0x20 DUP3 ADD SWAP1 POP SWAP2 SWAP1 POP JUMP JUMPDEST PUSH1 0x0 PUSH2 0x766 PUSH1 0x5 DUP4 PUSH2 0x901 JUMP JUMPDEST SWAP2 POP PUSH32 0x5365696C61000000000000000000000000000000000000000000000000000000 PUSH1 0x0 DUP4 ADD MSTORE PUSH1 0x20 DUP3 ADD SWAP1 POP SWAP2 SWAP1 POP JUMP JUMPDEST PUSH1 0x0 PUSH2 0x7A6 PUSH1 0x0 DUP4 PUSH2 0x8F6 JUMP JUMPDEST SWAP2 POP PUSH1 0x0 DUP3 ADD SWAP1 POP SWAP2 SWAP1 POP JUMP JUMPDEST PUSH2 0x7BC DUP2 PUSH2 0x974 JUMP JUMPDEST DUP3 MSTORE POP POP JUMP JUMPDEST PUSH1 0x0 PUSH2 0x7CD DUP3 PUSH2 0x799 JUMP JUMPDEST SWAP2 POP DUP2 SWAP1 POP SWAP2 SWAP1 POP JUMP JUMPDEST PUSH1 0x0 PUSH1 0x20 DUP3 ADD SWAP1 POP PUSH2 0x7EC PUSH1 0x0 DUP4 ADD DUP5 PUSH2 0x60A JUMP JUMPDEST SWAP3 SWAP2 POP POP JUMP JUMPDEST PUSH1 0x0 PUSH1 0x20 DUP3 ADD SWAP1 POP DUP2 DUP2 SUB PUSH1 0x0 DUP4 ADD MSTORE PUSH2 0x80B DUP2 PUSH2 0x619 JUMP JUMPDEST SWAP1 POP SWAP2 SWAP1 POP JUMP JUMPDEST PUSH1 0x0 PUSH1 0x20 DUP3 ADD SWAP1 POP DUP2 DUP2 SUB PUSH1 0x0 DUP4 ADD MSTORE PUSH2 0x82B DUP2 PUSH2 0x659 JUMP JUMPDEST SWAP1 POP SWAP2 SWAP1 POP JUMP JUMPDEST PUSH1 0x0 PUSH1 0x20 DUP3 ADD SWAP1 POP DUP2 DUP2 SUB PUSH1 0x0 DUP4 ADD MSTORE PUSH2 0x84B DUP2 PUSH2 0x699 JUMP JUMPDEST SWAP1 POP SWAP2 SWAP1 POP JUMP JUMPDEST PUSH1 0x0 PUSH1 0x20 DUP3 ADD SWAP1 POP DUP2 DUP2 SUB PUSH1 0x0 DUP4 ADD MSTORE PUSH2 0x86B DUP2 PUSH2 0x6D9 JUMP JUMPDEST SWAP1 POP SWAP2 SWAP1 POP JUMP JUMPDEST PUSH1 0x0 PUSH1 0x20 DUP3 ADD SWAP1 POP DUP2 DUP2 SUB PUSH1 0x0 DUP4 ADD MSTORE PUSH2 0x88B DUP2 PUSH2 0x719 JUMP JUMPDEST SWAP1 POP SWAP2 SWAP1 POP JUMP JUMPDEST PUSH1 0x0 PUSH1 0x20 DUP3 ADD SWAP1 POP DUP2 DUP2 SUB PUSH1 0x0 DUP4 ADD MSTORE PUSH2 0x8AB DUP2 PUSH2 0x759 JUMP JUMPDEST SWAP1 POP SWAP2 SWAP1 POP JUMP JUMPDEST PUSH1 0x0 PUSH1 0x20 DUP3 ADD SWAP1 POP PUSH2 0x8C7 PUSH1 0x0 DUP4 ADD DUP5 PUSH2 0x7B3 JUMP JUMPDEST SWAP3 SWAP2 POP POP JUMP JUMPDEST PUSH1 0x0 PUSH1 0x40 DUP3 ADD SWAP1 POP PUSH2 0x8E2 PUSH1 0x0 DUP4 ADD DUP6 PUSH2 0x7B3 JUMP JUMPDEST PUSH2 0x8EF PUSH1 0x20 DUP4 ADD DUP5 PUSH2 0x7B3 JUMP JUMPDEST SWAP4 SWAP3 POP POP POP JUMP JUMPDEST PUSH1 0x0 DUP2 SWAP1 POP SWAP3 SWAP2 POP POP JUMP JUMPDEST PUSH1 0x0 DUP3 DUP3 MSTORE PUSH1 0x20 DUP3 ADD SWAP1 POP SWAP3 SWAP2 POP POP JUMP JUMPDEST PUSH1 0x0 PUSH2 0x91D DUP3 PUSH2 0x974 JUMP JUMPDEST SWAP2 POP PUSH2 0x928 DUP4 PUSH2 0x974 JUMP JUMPDEST SWAP3 POP DUP3 PUSH32 0xFFFFFFFFFFFFFFFFFFFFFFFFFFFFFFFFFFFFFFFFFFFFFFFFFFFFFFFFFFFFFFFF SUB DUP3 GT ISZERO PUSH2 0x95D JUMPI PUSH2 0x95C PUSH2 0x97E JUMP JUMPDEST JUMPDEST DUP3 DUP3 ADD SWAP1 POP SWAP3 SWAP2 POP POP JUMP JUMPDEST PUSH1 0x0 DUP2 ISZERO ISZERO SWAP1 POP SWAP2 SWAP1 POP JUMP JUMPDEST PUSH1 0x0 DUP2 SWAP1 POP SWAP2 SWAP1 POP JUMP JUMPDEST PUSH32 0x4E487B7100000000000000000000000000000000000000000000000000000000 PUSH1 0x0 MSTORE PUSH1 0x11 PUSH1 0x4 MSTORE PUSH1 0x24 PUSH1 0x0 REVERT INVALID LOG2 PUSH5 0x6970667358 0x22 SLT KECCAK256 CALL GAS 0x4F 0xB8 ORIGIN PUSH8 0x9DD5DA8FAAE8179C ISZERO 0x2A DUP13 TIMESTAMP EXTCODECOPY SSTORE SHL DUP6 PUSH24 0xF2A353E56EFEB4E7D964736F6C6343000800003300000000 "
        },
        "methodIdentifiers": {
          "checkFinished()": "3b6c5143",
          "checkGameBlockNumber()": "6556b716",
          "checkWinner()": "ad38867e",
          "pressButton()": "c8b5da66",
          "withdraw()": "3ccfd60b"
        }
      }
    }
  }
}